{
  "contractName": "TodoList",
  "abi": [
    {
      "inputs": [],
      "stateMutability": "nonpayable",
      "type": "constructor"
    },
    {
      "inputs": [],
      "name": "completedCount",
      "outputs": [
        {
          "internalType": "uint256",
          "name": "",
          "type": "uint256"
        }
      ],
      "stateMutability": "view",
      "type": "function",
      "constant": true
    },
    {
      "inputs": [],
      "name": "deletedCount",
      "outputs": [
        {
          "internalType": "uint256",
          "name": "",
          "type": "uint256"
        }
      ],
      "stateMutability": "view",
      "type": "function",
      "constant": true
    },
    {
      "inputs": [],
      "name": "taskCount",
      "outputs": [
        {
          "internalType": "uint256",
          "name": "",
          "type": "uint256"
        }
      ],
      "stateMutability": "view",
      "type": "function",
      "constant": true
    },
    {
      "inputs": [
        {
          "internalType": "uint256",
          "name": "",
          "type": "uint256"
        }
      ],
      "name": "tasks",
      "outputs": [
        {
          "internalType": "uint256",
          "name": "id",
          "type": "uint256"
        },
        {
          "internalType": "string",
          "name": "content",
          "type": "string"
        },
        {
          "internalType": "bool",
          "name": "completed",
          "type": "bool"
        },
        {
          "internalType": "bool",
          "name": "deleted",
          "type": "bool"
        }
      ],
      "stateMutability": "view",
      "type": "function",
      "constant": true
    },
    {
      "inputs": [
        {
          "internalType": "string",
          "name": "_content",
          "type": "string"
        }
      ],
      "name": "createTask",
      "outputs": [
        {
          "components": [
            {
              "internalType": "uint256",
              "name": "id",
              "type": "uint256"
            },
            {
              "internalType": "string",
              "name": "content",
              "type": "string"
            },
            {
              "internalType": "bool",
              "name": "completed",
              "type": "bool"
            },
            {
              "internalType": "bool",
              "name": "deleted",
              "type": "bool"
            }
          ],
          "internalType": "struct TodoList.Task",
          "name": "",
          "type": "tuple"
        }
      ],
      "stateMutability": "nonpayable",
      "type": "function"
    },
    {
      "inputs": [
        {
          "internalType": "uint256",
          "name": "index",
          "type": "uint256"
        }
      ],
      "name": "completed",
      "outputs": [],
      "stateMutability": "nonpayable",
      "type": "function"
    },
    {
      "inputs": [
        {
          "internalType": "uint256",
          "name": "index",
          "type": "uint256"
        }
      ],
      "name": "deleted",
      "outputs": [],
      "stateMutability": "nonpayable",
      "type": "function"
    }
  ],
  "bytecode": "0x608060405234801561001057600080fd5b506000808055600181905560025561075c8061002d6000396000f3fe608060405234801561001057600080fd5b506004361061009a576000357c0100000000000000000000000000000000000000000000000000000000900480638d977672116100785780638d977672146100f4578063b3c9e0fa14610117578063b6cb58a514610120578063c0cca5ef1461012957600080fd5b8063111002aa1461009f5780632c59e5d8146100c85780633f20f7f8146100df575b600080fd5b6100b26100ad3660046103d4565b61013c565b6040516100bf91906104cb565b60405180910390f35b6100d160025481565b6040519081526020016100bf565b6100f26100ed366004610515565b610200565b005b610107610102366004610515565b61027e565b6040516100bf949392919061052e565b6100d160015481565b6100d160005481565b6100f2610137366004610515565b610335565b61016b604051806080016040528060008152602001606081526020016000151581526020016000151581525090565b60008054908061017a8361058e565b90915550506040805160808101825260008054808352602080840187815284860184905260608501849052918352600390529290208151815591519091829160018201906101c89082610649565b5060408201516002909101805460609093015115156101000261ff00199215159290921661ffff199093169290921717905592915050565b600081815260036020526040812060020154610100900460ff16151590036102565760008181526003602052604081206002908101805461ff00191661010017905580549161024e8361058e565b919050555050565b60008181526003602052604081206002908101805461ff001916905580549161024e8361070f565b600360205260009081526040902080546001820180549192916102a0906105a7565b80601f01602080910402602001604051908101604052809291908181526020018280546102cc906105a7565b80156103195780601f106102ee57610100808354040283529160200191610319565b820191906000526020600020905b8154815290600101906020018083116102fc57829003601f168201915b5050506002909301549192505060ff8082169161010090041684565b60008181526003602052604090206002015460ff16151560010361037a576000818152600360205260408120600201805460ff19169055600180549161024e8361070f565b6000818152600360205260408120600201805460ff1916600190811790915580549161024e8361058e565b7f4e487b7100000000000000000000000000000000000000000000000000000000600052604160045260246000fd5b6000602082840312156103e657600080fd5b813567ffffffffffffffff808211156103fe57600080fd5b818401915084601f83011261041257600080fd5b813581811115610424576104246103a5565b604051601f8201601f19908116603f0116810190838211818310171561044c5761044c6103a5565b8160405282815287602084870101111561046557600080fd5b826020860160208301376000928101602001929092525095945050505050565b6000815180845260005b818110156104ab5760208185018101518683018201520161048f565b506000602082860101526020601f19601f83011685010191505092915050565b602081528151602082015260006020830151608060408401526104f160a0840182610485565b90506040840151151560608401526060840151151560808401528091505092915050565b60006020828403121561052757600080fd5b5035919050565b8481526080602082015260006105476080830186610485565b93151560408301525090151560609091015292915050565b7f4e487b7100000000000000000000000000000000000000000000000000000000600052601160045260246000fd5b6000600182016105a0576105a061055f565b5060010190565b6002810460018216806105bb57607f821691505b6020821081036105f4577f4e487b7100000000000000000000000000000000000000000000000000000000600052602260045260246000fd5b50919050565b601f821115610644576000818152602081206020601f860104810160208610156106215750805b6020601f860104820191505b818110156106405782815560010161062d565b5050505b505050565b815167ffffffffffffffff811115610663576106636103a5565b6106778161067184546105a7565b846105fa565b602080601f8311600181146106b057600084156106945750858301515b60028086026008870290910a6000190419821617865550610640565b600085815260208120601f198616915b828110156106df578886015182559484019460019091019084016106c0565b50858210156106ff57878501516008601f88160260020a60001904191681555b5050505050600202600101905550565b60008161071e5761071e61055f565b50600019019056fea2646970667358221220fd36a5034afe9d37800a34159619eca94b969d5d5b931557ff93f8b973657c9864736f6c63430008110033",
  "immutableReferences": {},
  "source": "// SPDX-License-Identifier: MIT\npragma solidity ^0.8.17;\n\ncontract TodoList {\n    uint256 public taskCount;\n    uint256 public completedCount;\n    uint256 public deletedCount;\n\n    constructor() {\n        taskCount = 0;\n        completedCount = 0;\n        deletedCount = 0;\n    }\n\n    struct Task {\n        uint256 id;\n        string content;\n        bool completed;\n        bool deleted;\n    }\n\n    mapping(uint256 => Task) public tasks;\n\n    function createTask(string memory _content) public returns (Task memory) {\n        taskCount++;\n        Task memory task = Task(taskCount, _content, false, false);\n        tasks[taskCount] = task;\n        return task;\n    }\n\n    function completed(uint256 index) public {\n        if (tasks[index].completed == true) {\n            tasks[index].completed = false;\n            completedCount--;\n        } else {\n            tasks[index].completed = true;\n            completedCount++;\n        }\n    }\n\n    function deleted(uint256 index) public {\n        if (tasks[index].deleted == false) {\n            tasks[index].deleted = true;\n            deletedCount++;\n        } else {\n            tasks[index].deleted = false;\n            deletedCount--;\n        }\n    }\n}\n",
  "sourcePath": "/home/ARITRA/Documents/Blockchain/Projects/Todo-list/backend/contracts/test.sol",
  "compiler": {
    "name": "solc",
    "version": "0.8.17+commit.8df45f5f.Emscripten.clang"
  },
  "schemaVersion": "3.4.10",
  "updatedAt": "2022-11-12T18:43:23.561Z",
  "networkType": "ethereum",
  "devdoc": {
    "kind": "dev",
    "methods": {},
    "version": 1
  },
  "userdoc": {
    "kind": "user",
    "methods": {},
    "version": 1
  }
}